:020000040800F2
:100000007005002001010008CB220008F11D000846
:10001000C9220008DD030008752B0008000000005D
:100020000000000000000000000000008D25000816
:10003000DF03000800000000ED2200088F25000803
:100040001B0100081B0100081B0100081B01000820
:100050001B0100081B0100081B0100081B01000810
:100060001B0100081B0100081B0100081B01000800
:100070001B0100081B0100081B0100081B010008F0
:100080001B0100081B0100081B0100081B010008E0
:100090001B0100081B0100081B0100081B010008D0
:1000A0001B0100081B0100081B0100081B010008C0
:1000B0001B0100081B0100081B0100081B010008B0
:1000C0001B0100081B0100081B0100081B010008A0
:1000D0001B0100081B0100081B0100081B01000890
:1000E0001B0100081B0100081B010008DFF80CD0F1
:1000F00000F004F900480047FD30000870050020BA
:100100000648804706480047FEE7FEE7FEE7FEE7B1
:10011000FEE7FEE7FEE7FEE7FEE7FEE7192600083A
:10012000ED000008F0B480EA0102D40F4200B2EB07
:10013000410F02D20246084611464A0042D0C30D82
:10014000DDB2C1F3C752AD1A202D35DAC1F3160165
:1001500041F4000204B15242C5F1200602FA06F150
:100160002A411044B3EBD05F23D0C4B1012DA0EBE2
:10017000C35009DCF0BC4FF0004202EAC352DBB2CC
:1001800000F5000000F08CB8400000F1807000EB3A
:10019000C350A0F1807040EAD170490009E04908DD
:1001A00041EAC071A0EBC35000F50000400800EB2D
:1001B000C350F0BC00F06BB86142012202EB410178
:1001C000001BF6E7F0BC704781F00041AAE780F021
:1001D0000040A7E730B480EA010202F0004530F0A9
:1001E000004221F0004013D090B1C30DD40DC2F3F2
:1001F0001601C0F31600E41A41F4000140F40002B5
:100200007D34914201D3641C00E04900002C02DAE5
:1002100030BC002070474FF400000023914201D30E
:10022000891A034340084FEA4101F7D151B1914285
:1002300002D14FF0004105E002D24FF0010101E090
:100240006FF0010103EBC450284430BC00F01FB82C
:10025000C10F80EAE0700844CA079623002100F02D
:100260001FB830B50B46014600202022012409E0CA
:1002700021FA02F59D4205D303FA02F5491B04FA5F
:1002800002F52844151EA2F10102F1DC30BD00295F
:10029000A8BF7047401C490008BF20F0010070470C
:1002A00010B4B0FA80FC00FA0CF050EA010404BF6C
:1002B00010BC704749B1CCF1200421FA04F411FAC2
:1002C0000CF118BF012121430843A3EB0C01CB1D06
:1002D0004FEA00614FEA102042BF002010BC704777
:1002E00000EBC35010440029A4BF10BC7047401C51
:1002F000490008BF20F0010010BC7047064C074DB4
:1003000006E0E06840F0010394E8070098471034E5
:10031000AC42F6D3FFF7EEFE0434000824340008A4
:1003200070B5044600688168C943C9071CD181685B
:1003300021F00101816000F0C9FB05460FE000BF1C
:1003400000F0C4FB401B022809D9A06A40F010004D
:10035000A062E06A40F00100E062012070BD206808
:100360008068C043C007EBD0002070BDF8B5002600
:100370000446009600688168C943C90728D081688F
:1003800041F001018160134813490068B0FBF1F0AE
:1003900000E0401E00900028FBD100F097FB0546CE
:1003A00011E000BF00F092FB401B02280BD9A06AAD
:1003B00040F01000A062E06A40F00100E06284F8C2
:1003C00024600120F8BD20688068C043C007E9D1DF
:1003D0000020F8BD3000002040420F00FEE77047CB
:1003E000F8B50025009590F82420AE46012A1ED0CD
:1003F000012280F824204A681F244FF47873072ACA
:1004000017D20668776B93FAA3FCBCFA8CFC521ED9
:1004100002FB0CFC04FA0CF4A74393FAA3F3B3FA1F
:1004200083F30C685A439440274377632DE00220FE
:10043000F8BD06680D2A14D2376B93FAA3FCBCFAF8
:100440008CFCD21F02FB0CFC04FA0CF4A74393FAB9
:10045000A3F3B3FA83F30C685A43944027433763FA
:1004600013E0F76A93FAA3FCBCFA8CFC0D3A02FB8A
:100470000CFC04FA0CF4A74393FAA3F3B3FA83F346
:100480000C685A4394402743F7620A6838230724CC
:1004900006680A2A14D3F76893FAA3FCBCFA8CFC0A
:1004A0000A3A02FB0CFC04FA0CF4A74393FAA3F3F8
:1004B000B3FA83F38C685A4394402743F76012E001
:1004C000376993FAA3FCBCFA8CFC02FB0CFC04FA1F
:1004D0000CF4A74393FAA3F3B3FA83F38C685A435B
:1004E0009440274337610A68102A01D0112A20D18D
:1004F000124B02689A4217D193681B0219D4936871
:1005000043F4000393600968102912D10C490D4A85
:100510000968B1FBF2F101EB8101490000E0491EDD
:1005200000910029FBD104E0816A41F02001816241
:10053000012580F824E02846F8BD00000024014091
:100540003000002040420F000068C06C704700007F
:100550002DE9F04104004FF0000514D0A06A0026F8
:1005600028B9E66284F82460204600F08BF8204623
:10057000FFF7D6FEA16A01F01001014304D0A06A82
:1005800040F01000A06277E0A16A21F4885141F0A8
:100590000201A1626268E16902270A43E16897FAF1
:1005A000A7F70B46B7FA87F7B9400A43A1684FF49B
:1005B0008077B94208D0012906D00021D4F814C0B0
:1005C000BCF1010F02D00AE03946F7E7F3B1A36AA4
:1005D00043F02003A362E36A43F00103E36223686C
:1005E000D3F804C02CF4694C4CEA010CC3F804C0E5
:1005F00021688B68DFF884C003EA0C0313438B6027
:10060000A168B94210D001290ED016E04FF4604C19
:10061000A3699CFAACFCBCFA8CFC5B1E03FA0CF3DD
:100620000B4343F40061DAE74FF47001256991FA56
:10063000A1F1B1FA81F16D1E8D402168CB6A23F4DE
:1006400070032B43CB62216889680D4B194091429E
:1006500008D1E662A16A21F0020141F00101A16224
:10066000BDE8F081A06A20F0020040F01000A06216
:10067000E06A40F00100E0620120F1E7FDF7E1FFF0
:10068000FE0E1FFF00B500680A4985B088420FD1F1
:100690000948816941F4007181618069694600F40B
:1006A00000700490032000900190044800F026F9A7
:1006B00005B000BD002401400010024000080140C8
:1006C0002DE9F84300260D460446009600F0FEF999
:1006D000804620688168C90508D5A06A40F02000DE
:1006E000A06284F824600120BDE8F8834168C90550
:1006F00003D4C06A10F4700F26D0022000F034FD3D
:1007000038490968B1FBF0F72068036936490B42A4
:100710004FEA61014FEAA1121BD1C3684FEA611C85
:1007200013EA0C0F15D103690B4221D1C0681042A6
:100730001ED114201FE0681C06D045B300F0C6F996
:10074000A0EB0800A84222D8206800688007F2D5F4
:100750002AE003690B4202D1C168114206D0026946
:1007600022490A4206D1C068084203D1542002E05F
:10077000292000E0FC204743009813E0681C0ED0BD
:100780002DB100F0A3F9A0EB0800A84207D9A06A98
:1007900040F00400A06284F824600320A4E70098DD
:1007A000401C0090B842E9D321686FF01200086045
:1007B000A06A40F40070A06220688068C0F34240E4
:1007C00007280CD1E06850B9A06A20F48070A062BC
:1007D000A06AC00403D4A06A40F00100A062002017
:1007E00082E700003000002024499224499224002E
:1007F00070B5044690F8240001280DD0012084F83B
:1008000024002046FFF7B2FD02004FF0000005D0A3
:1008100084F82400104670BD022070BDA16A40F229
:100820000123994341F48071A1621F4D23681F4940
:10083000AB4218D10E6816F4702F14D0A66A46F495
:100840008016A6620E68760505D5A66A26F40056BF
:1008500046F48056A662A66AF6040AD5E66A26F031
:100860000606E66206E0A66A26F48016A6625E68C0
:10087000E9E7E06284F824006FF002001860206865
:100880008368C3F34243072B05D1A84208D1096806
:1008900011F4702F04D0816841F480118160B9E7B0
:1008A000816841F4A001F9E70028014004240140D7
:1008B00010B5044690F82400012807D0012084F8E0
:1008C00024002046FFF72CFD10B107E0022010BDE8
:1008D000A16A21F4885141F00101A162002184F84C
:1008E000241010BD31B500F0F1F8044600F0EEF828
:1008F0000099001B8842F9D338BD00002DE9F84F5C
:10090000DFF890A100220AF1040B144601274FF0F2
:100910000F090BF1040E00BF0B6807FA04F52B401A
:10092000AB4274D1DFF870C14E68A6EB0C08664587
:100930002BD00DDC032E34D005DC36B3012E19D0BC
:10094000022E2FD11BE0112E16D0122E2AD119E023
:10095000B8F5881F19D006DCB8F5803F15D0B8F57A
:10096000801F1FD111E0B8F5001F0ED0B8F5041F8D
:1009700018D10AE0CA6815E0CA68121D12E0CA68F8
:1009800008320FE0CA680C320CE08A682AB1012AEA
:100990004FF0080203D0456104E0042202E0056143
:1009A00000E00022FF2B01D8064601E000F104061A
:1009B0004FEA840501D9A5F12005D6F800C009FA4F
:1009C00005F82CEA080C02FA05F54CEA050CC6F805
:1009D00000C04D68ED0057D5304DAE6946F00106B8
:1009E000AE61AD6924F0030605F0010500952C4DBC
:1009F00006EB050CDCF80850A6074FEA167809FA52
:100A000008F6B543274EB04202D1002610E03BE085
:100A1000254EB04201D101260AE0244EB04201D158
:100A2000022605E0224EB04201D1032600E0042652
:100A300006FA08F62E43CCF808604D68DAF8006034
:100A4000ED03554601D51E4300E09E432E604D68E0
:100A5000DBF80060AD035D4601D51E4300E09E4318
:100A60002E604D68DEF80060ED02754601D51E432C
:100A700000E09E432E604D68AD020E4D2E6801D5FC
:100A80001E4300E09E432E60641C102CFFF444AF14
:100A9000BDE8F88F00040140000011100010024072
:100AA0000000014000080140000C0140001001401E
:100AB000001401400C040140C2684A40C260704703
:100AC0000AB1016170470904FBE7000001480068B2
:100AD000704700002C00002070B5040004D094F88A
:100AE0003500002510B106E0012070BD84F83450B7
:100AF000204600F081FA242084F83500206801683F
:100B000021F00101016000F007FD0146284822683C
:100B1000B1FBF0F05060274A6368934206D94FF466
:100B2000967358434FF47A73B0FBF3F02368401C7C
:100B300018626068904208D84000B1FBF0F0C0F342
:100B40000B01042916D2042014E0A26852B100EB74
:100B5000C00202EB0010B1FBF0F040F44040010590
:100B600007D007E000EB4000B1FBF0F040F400409C
:100B7000F5E701202168C861D4E90701084321682D
:100B80000860D4E90310084321688860D4E90501AE
:100B900008432168C8602068016841F001010160D4
:100BA000A563202084F8350084F83650002070BDFD
:100BB00040420F00A08601002DE9FF4F044690F847
:100BC000350081B099468B460125202873D142F229
:100BD000107301224849204601F0B8F900286AD173
:100BE00094F83400012866D0012084F8340020688D
:100BF000016821F400610160242084F8350000269A
:100C0000A66320272068016841F4807101604B468B
:100C100000224FF00111204601F098F900285CD124
:100C200021680BF0FE000861FFF750FF2168804645
:100C300048694969C0F3400094F83520C1F3802128
:100C40004FF0A00A14E000BFB9F1000F05D0FFF784
:100C50003DFFA0EB0801494501D984F835A0216882
:100C600048694969C0F3400094F83520C1F38021F8
:100C7000084301D1A02AE7D184F835702068416982
:100C8000C943890718D4016841F4007101602068E4
:100C900041698069009042F2107301221649204692
:100CA00001F054F9C8B984F8357084F83460002034
:100CB00005B0BDE8F08F1DE0016841F400710160EE
:100CC0002068416921F48061416142F21073012280
:100CD0000949204601F03AF908B10320E8E728461F
:100CE00003996D1C88428DD384F8357084F8346084
:100CF0000120DDE70220DBE7020010002DE9F843C8
:100D0000044690F83500DDF820901E4615468846CA
:100D1000202878D1002D5ED0002E5CD042F21073D6
:100D200001226849204601F011F90028F1D194F818
:100D30003400012867D0012084F83400206801685D
:100D400021F400610160222084F83500102084F82D
:100D500036000027A7634A464146204601F05EF868
:100D600028B1A06B84F83470042834D072E0012ECE
:100D70001AD02068DFF85081022E01682ED041F48D
:100D8000806101602068416980690090032E74D8F9
:100D9000012E18D0022E2ED04B460022414620466E
:100DA00001F0D4F880BB42E02068016821F4806142
:100DB000016072B62068416981690091016841F45F
:100DC0000071016062B64946204601F048F9E0B181
:100DD000A06B20283ED00120BDE8F88341F40061DB
:100DE000016072B62068416981690091016821F44F
:100DF0008061016062B64B4600224146204601F008
:100E0000A5F808B905E05AE024E0206800692870D8
:100E10004CE072B62068016841F4007101602068FE
:100E20000069287062B62068006968703EE020683A
:100E3000016821F48061016072B62068006905F8DC
:100E4000010B761EB6B24B4600224146204601F009
:100E50007DF808B10320BFE72068016841F4007104
:100E600001602068006905F8010B62B6206800691E
:100E700005F8010BB61E15E0FFE74946204601F0D4
:100E8000EEF80028A4D12068006905F8010B21685C
:100E9000761EB6B24869C043400704D4086905F815
:100EA000010B761EB6B2002E7FF470AF202084F8BE
:100EB000350084F8367084F8347000208CE7022006
:100EC0008AE7000002001000040001002DE9F84349
:100ED000044690F83500DDF820801D461746894607
:100EE00020287BD1002F7AD0002D7ED042F21073C3
:100EF00001224049204601F029F8002877D194F8D2
:100F00003400012873D0012084F83400206801687F
:100F100021F400610160212084F83500102084F85C
:100F200036000026A66342464946204600F0D4FF1C
:100F300028B1A06B84F83460042856D00BE02068F8
:100F40004169806900904146204601F0BBF828B114
:100F5000A06B042844D00320BDE8F883216817F86B
:100F6000010B086120686D1EADB24169C943490794
:100F700005D435B117F8011B01616D1EADB2002D0E
:100F8000E1D14546FFF7A2FD8046202716E0204626
:100F900000F02FFF0028DBD1681C0FD02DB1FFF728
:100FA00095FDA0EB0800A84208D9A06B40F02001F5
:100FB000A16384F8357084F83460C9E7206840691B
:100FC000C0434007E3D42068016841F40071016028
:100FD00084F8357084F834600020BDE707E004E051
:100FE0002068016841F4007101600120B4E702202B
:100FF000B2E700000200100000B500680C4985B09F
:10100000884212D1C020009012200190032003904A
:1010100069460848FFF772FC0748C16941F40011AE
:10102000C161C06900F40010049005B000BD00006B
:1010300000540040000C01400010024002480168CA
:10104000491C0160704700002C000020074810B5C3
:10105000016841F010010160032000F073F80020E6
:1010600000F006F800F016F8002010BD0020024045
:1010700010B5044600F04AFA4FF47A71B0FBF1F073
:1010800000F08AFD00222146501E00F03BF80020AF
:1010900010BD00001A4808B5816941F00101816165
:1010A000806900F001000090032000F04BF800225E
:1010B00011466FF00B0000F025F8002211466FF08A
:1010C0000A0000F01FF8002211466FF0090000F03E
:1010D00019F800221146501F00F014F800221146A2
:1010E000101F00F00FF800221146901E00F00AF8C1
:1010F0000022BDE808401146501E00F003B8000071
:1011000000100240F0B40E4B1B680C46C3F30223E0
:10111000C3F10705042D00D90425191D072901D2A3
:10112000002300E0DB1E012606FA05F1491E2140DE
:1011300099409E40761E16403143F0BC01F0C6B87F
:101140000CED00E0064900F0070208684FF6FF03C7
:10115000184040EA0220034A10430860704700002C
:101160000CED00E00000FA0510B533A401461DCCDB
:1011700086B08DE81D0034A0344C00680490002037
:10118000012931D0022948D010292BD16168226869
:10119000D20127D54FF4701292FAA2F201F4701026
:1011A000B2FA82F2D040C9031DF8000010D5616880
:1011B0004FF4003292FAA2F201F40031B2FA82F254
:1011C000D14004AA515C224AB2FBF1F1484301E04C
:1011D000204948436168490204D440005FF003019C
:1011E000B0FBF1F006B010BD226AC2F30121012963
:1011F00003D1920701D5C803F4E7022905D1626A39
:10120000920702D549F64040ECE70329EAD121686C
:101210008903E7D54FF22440E4E700F095F96168CF
:101220004FF4804292FAA2F201F44041B2FA82F203
:10123000D140491C4900D3E7020304050607080909
:101240000A0B0C0D0E0F10100102000000100240DE
:1012500000127A0000093D002DE9F84305460078A8
:10126000454CC00774D0E06940F08050E061E0690F
:10127000424E00F080500090306840F48070306042
:10128000FFF724FC074604E0FFF720FCC01B64289E
:1012900033D83068C005F7D5206A10F4407051D0BB
:1012A000A98801F4407181424CD0206A01263104A2
:1012B00091FAA1F2B2FA82F29300314A20F440701E
:1012C0001344C3F8006491FAA1F1B1FA81F102EB81
:1012D00081010023C1F800342062C00732D0FFF73B
:1012E000F5FB074641F288394FF0020808E000BFDD
:1012F000FFF7ECFBC11B494502D90320BDE8F88389
:1013000098FAA8F1B1FA81F141F040014046B6EBFC
:10131000511F01D121680BE090FAA0F1B1FA81F1DF
:1013200041F04001B0EB511F01D1216A00E0616A38
:1013300098FAA8F0B0FA80F000F01F0206FA02F066
:101340000142D5D0206A696820F4407008432062C9
:101350002878800705D56068A96820F440400843D4
:1013600060602878C00605D56068E96820F48000D0
:10137000084360600020C1E7001002400070004098
:10138000000042422DE9F047DFF8708105460E4625
:10139000D8F8000000F00700B0420CD2D8F80010D6
:1013A00021F007013143C8F80010D8F8000000F020
:1013B0000700B04277D12878514C800705D5606886
:1013C000A96820F0F000084360602878C00759D071
:1013D0006968012001290DD0022929D05FF002039C
:1013E00093FAA3F2B2FA82F242F02002520904D038
:1013F000226803E04FF40033F2E7626A93FAA3F342
:10140000B3FA83F303F01F03984002424BD06068A5
:1014100020F0030008436060FFF758FB6968074647
:1014200041F2883001290DD00229814617D025E0EC
:101430004FF00073D4E700BFFFF748FBC11B4945DD
:1014400001D918E081466068C0F381000128F3D11A
:1014500018E000BFFFF73AFBC11B49450BD8606895
:10146000C0F381000228F5D10CE000BFFFF72EFB8E
:10147000C11B494502D90320BDE8F087606810F020
:101480000C0FF3D1D8F80010404601F00701B1422B
:101490000BD9016821F0070131430160006800F0B9
:1014A0000700B04201D00120E6E72878400705D5C3
:1014B0006068E96820F4E06008436060287800070D
:1014C00006D56068296920F4605040EAC100606078
:1014D00000F052F86168F02292FAA2F201F0F001F5
:1014E000B2FA82F2D140074A515CC840064908600E
:1014F0000020FFF7BDFD0020BEE7000000200240F5
:1015000000100240EC330008300000200148006861
:101510007047000030000020084809490068496809
:101520004FF4E06292FAA2F201F4E061B2FA82F2C0
:10153000D140044A515CC840704700003000002090
:1015400000100240FC330008084809490068496857
:101550004FF4605292FAA2F201F46051B2FA82F2B0
:10156000D140044A515CC840704700003000002060
:1015700000100240FC33000810B519A385B00FCB52
:101580008DE80F001AA01B4B006804905A681A4897
:1015900002F00C0104291DD008291BD14FF470144E
:1015A00094FAA4F402F47011B4FA84F4E140D20382
:1015B0001DF8011010D55A684FF4003393FAA3F3C5
:1015C00002F40032B3FA83F3DA4004AB9A5CB0FB66
:1015D000F2F0484305B010BD08484843FAE7000060
:1015E00002030405060708090A0B0C0D0E0F101064
:1015F000010200000010024000127A0000093D00C4
:101600002DE9F84F04460078F74DC0074FF001066A
:1016100025D068687704C0F38100012807D0686886
:10162000C0F3810002281BD16868C00318D597FA5F
:10163000A7F0B0FA80F040F02000400901D02868FF
:1016400000E0686A97FAA7F1B1FA81F101F01F0191
:1016500006FA01F108425ED0606800287CD05AE0AA
:101660006068B0F5803F0BD010B1B0F5A02F11D05D
:10167000286820F480302860286820F4802002E068
:10168000286840F480302860606828B3FFF71EFAAD
:1016900080460BE0286840F480202860F0E700BF17
:1016A000FFF714FAA0EB0800642871D897FAA7F0A6
:1016B000B0FA80F040F02000400901D0286800E036
:1016C000686A97FAA7F1B1FA81F101F01F0106FAF1
:1016D00001F10842E4D01EE0FFF7F8F9804605E08A
:1016E000FFF7F4F9A0EB08006428DED897FAA7F01A
:1016F000B0FA80F040F02000400901D0286800E0F6
:10170000686A97FAA7F1B1FA81F101F01F0106FAB0
:1017100001F10842E4D12078DFF8D08280074FF051
:1017200000094FF002075BD568684FF0F80B10F026
:101730000C0F07D06868C0F3810002281CD16868CC
:10174000C00319D497FAA7F0B0FA80F040F0200057
:10175000400902D0286801E08BE0686A97FAA7F197
:10176000B1FA81F101F01F0106FA01F108422CD013
:10177000206901287DD128E0206990B396FAA6F06F
:10178000B0FA80F048F82060FFF7A0F9824607E041
:1017900011E100BFFFF79AF9A0EB0A00022884D8F4
:1017A00097FAA7F0B0FA80F040F02000400901D08D
:1017B000286800E0686A97FAA7F1B1FA81F101F0B0
:1017C0001F0106FA01F10842E4D028689BFAABF247
:1017D0006169B2FA82F220F0F80091400843286073
:1017E00025E0FFE796FAA6F1B1FA81F148F82190D9
:1017F000FFF76CF9824605E0FFF768F9A0EB0A00F5
:101800000228CCD897FAA7F0B0FA80F040F0200078
:10181000400901D0286800E0686A97FAA7F1B1FA98
:1018200081F101F01F0106FA01F10842E4D12078AC
:1018300000076ED5A069B8B396FAA6F0B0FA80F0AA
:1018400008EB8000C0F88064FFF740F9824605E0AD
:10185000FFF73CF9A0EB0A000228A0D897FAA7F0FE
:10186000B0FA80F040F06000B6EB501F02D128685B
:101870000CE062E197FAA7F0B0FA80F040F0600067
:10188000B7EB501F01D1286A00E0686A97FAA7F108
:10189000B1FA81F101F01F0106FA01F21042D7D02E
:1018A0000120FFF71FF834E0FFE796FAA6F1B1FA3E
:1018B00081F108EB8101C1F88094FFF707F98246B6
:1018C00006E000BFFFF702F9A0EB0A00022872D879
:1018D00097FAA7F0B0FA80F040F06000B6EB501F26
:1018E00001D128680BE097FAA7F0B0FA80F040F039
:1018F0006000B7EB501F01D1286A00E0686A97FAD0
:10190000A7F1B1FA81F101F01F0106FA01F21042CC
:10191000D8D12078400765D5E86940F08050E8616B
:10192000E869DFF8CCB000F080500090DBF80010E0
:1019300041F48071CBF80010FFF7C8F8824605E04B
:10194000FFF7C4F8A0EB0A00642834D8DBF80000E5
:10195000C005F5D5E06801280AD008B1052813D0E4
:10196000286A20F001002862286A20F0040002E0C2
:10197000286A40F001002862E06841F2883B90B399
:10198000FFF7A4F882460BE0286A40F004002862C2
:10199000EEE700BFFFF79AF8A0EB0A0159450AD815
:1019A00097FAA7F0B0FA80F040F04000B6EB501F75
:1019B00002D128680CE0A3E097FAA7F0B0FA80F013
:1019C00040F04000B7EB501F01D1286A00E0686A80
:1019D00097FAA7F1B1FA81F101F01F0206FA02F1BC
:1019E0000842D7D031E005E000100240000042423A
:1019F00000700040FFF76AF8824605E0FFF766F8DE
:101A0000A0EB0A0159457BD897FAA7F0B0FA80F00D
:101A100040F04000B6EB501F01D128680BE097FA68
:101A2000A7F0B0FA80F040F04000B7EB501F01D1B2
:101A3000286A00E0686A97FAA7F1B1FA81F101F02B
:101A40001F0206FA02F10842D8D1E06980B3696842
:101A5000C1F38101022970D04FF080714F0002283C
:101A6000484609D091FAA1F1B1FA81F148F8210074
:101A7000FFF72CF8044669E08A4691FAA1F1B1FA21
:101A800081F1C14648F82100FFF720F8804605E0C3
:101A9000FFF71CF8A0EB0800022854D897FAA7F02B
:101AA000B0FA80F040F02000400902D0286801E040
:101AB00061E0686A97FAA7F1B1FA81F101F01F01BC
:101AC00006FA01F10842E3D1206AB0F5803F05D162
:101AD0006868A16820F4003008436860D4E9080110
:101AE0000843696821F47411084368609AFAAAF0FF
:101AF000B0FA80F049F82060FEF7E8FF044606E0FF
:101B000021E000BFFEF7E2FF001B02281BD897FA76
:101B1000A7F0B0FA80F040F02000400901D028681A
:101B200000E0686A97FAA7F1B1FA81F101F01F01AC
:101B300006FA01F10842E5D01DE01EE0FEF7C6FFFF
:101B4000001B022802D90320BDE8F88F97FAA7F0FE
:101B5000B0FA80F040F02000400901D0286800E091
:101B6000686A97FAA7F1B1FA81F101F01F0106FA4C
:101B700001F10842E2D10020E6E70120E4E74FF05E
:101B8000E0210428086903D020F0040008617047B0
:101B900040F00400FAE7704710B5401EB0F1807FB6
:101BA00001D3012010BD4FF0E02460610F216017C8
:101BB00000F08CFB0020A06107202061002010BDF8
:101BC00010B5FFF7E8FF10BD30B590F83820012AB6
:101BD00019D0012200F8382F02234370D1E90034D4
:101BE0002343D1E902452C4323430C6923434C6929
:101BF000896923430B4350F8381C4B644270002121
:101C00000170084630BD022030BD30B590F8382054
:101C1000012A20D0012280F83820022380F83930B0
:101C200003685C6824F070045C6003685C680D689D
:101C30002C435C6003689C6824F080049C6003680B
:101C40009C6849680C439C6080F83920002180F82A
:101C50003810084630BD022030BD00001FB50068B6
:101C60000649884208D18015009002200190039017
:101C700069460348FEF742FE1FBD0000002C0140EC
:101C80000008014070B5044690F8380001280DD0D6
:101C9000012584F83850022084F8390042B1042A22
:101CA0000AD0082A0CD00C2A11D10DE0022070BDF8
:101CB000206800F007FD0AE0206800F02BFD06E038
:101CC000206800F053FD02E0206800F07BFD84F8FE
:101CD0003950002084F8380070BD10B5040003D0DE
:101CE00094F8390010B107E0012010BD002084F8FD
:101CF0003800204600F00CF8022084F83900211D3D
:101D0000206800F0ADFC012084F83900002010BDEF
:101D100008B500680649884208D10648816941F43F
:101D200000618161806900F40060009008BD0000DE
:101D3000002C01400010024070B5040004D094F85B
:101D40003900002510B106E0012070BD84F838503C
:101D5000204600F021F8022084F839002068C1688C
:101D600021F40051C160204600F04CFE206801695A
:101D700021F4904101612068416921F02A0141610B
:101D80002068C16841F40051C160E563012084F816
:101D90003900002070BD000010B50068114986B000
:101DA00088421DD11048816941F480418161806978
:101DB0000E4C00F4804004904FF40070009002201C
:101DC00001900320039069462046FEF797FD00210D
:101DD0002015CDE90001029169462046FEF78EFDEF
:101DE00006B010BD0038014000100240000801405C
:101DF000FEE701684A69D24352050DD44A6922F4CC
:101E000080624A6104218163202180F8351000211D
:101E100080F8341001207047002070472DE9F84306
:101E2000044600680D469146016841F480610160F6
:101E30002068016841F48071016013464FF001177A
:101E400000223946204600F081F898BB206907F14E
:101E50000108B0F5804F10D00620216800EAD516A1
:101E600046F0F00008614A46F91D204600F0B3F83C
:101E700038B1A06B04282CD01CE0E8B240F001007F
:101E80001DE02168E8B208614A464146204600F05C
:101E9000A2F80028EDD120684169816900910168AC
:101EA00041F4807101604B4600223946204600F023
:101EB0004DF810B10320BDE8F88346F0F100216829
:101EC00008614A464146204600F085F80028D0D1F6
:101ED000F1E70120EFE7000070B5044600680D4609
:101EE0001646016841F480710160134600224FF0EC
:101EF0000111204600F02AF898B92069B0F5804F0A
:101F000011D00620216800EAD51040F0F0000861E9
:101F100032460D49204600F05EF838B1A06B042827
:101F200010D0032070BD05F0FE0000E0E8B221688B
:101F3000086105493246891F204600F04CF8002808
:101F4000ECD170BD012070BD080001002DE9F05FEB
:101F50001E4690460C460546FEF7B8FD81464FF0FA
:101F6000000A4FF0200BC4F30747B8F1000F09D067
:101F700024E0701C06D0D6B1FEF7A8FDA0EB090046
:101F8000B04214D82868012F06D0806924EA0000E6
:101F90000004000C1BD0ECE74069F7E7701C0DD083
:101FA0002EB1FEF793FDA0EB0900B04206D985F8EB
:101FB00035B085F834A00320BDE8F09F2868012FD4
:101FC00007D0806924EA00000004000CE6D000205D
:101FD000F2E74069F6E72DE9F04791460D460446E1
:101FE000FEF774FD824600274FF02008C5F3074630
:101FF00029E020684069C043400512D42068016888
:1020000041F4007101602068416921F480614161FF
:102010000420A06384F8358084F834700120BDE882
:10202000F087B9F1FF3F0ED0B9F1000F05D0FEF7F0
:102030004DFDA0EB0A01494505D984F8358084F8A7
:1020400034700320EBE72068012E06D0806925EA72
:1020500000000004000CE2D0CBE74069F7E72DE96F
:10206000F04188460446FEF731FD0025064620274C
:1020700021E04169C943C9060BD4416921F010012F
:102080004161A56384F8357084F834500120BDE8BF
:10209000F081B8F1000F04D0FEF718FD811B414517
:1020A00009D954F8380F40F0200044F8040967704B
:1020B00025700320EBE720684169C9434906D8D45D
:1020C0000020E4E770B50D460446FEF7FFFC064627
:1020D00019E02046FFF78DFE08B1012070BD681C95
:1020E00011D025B1FEF7F2FC801BA8420BD954F8A1
:1020F000380F40F0200044F80409202060700020D0
:102100002070032070BD20684069C0430006E0D401
:10211000002070BD3EB50F4800240D498460C460A6
:1021200044610160012505614FF460214460C16193
:10213000FEF70EFA00B1FEE7CDE900456946054815
:102140000294FEF74DF9002800D0FEE73EBD0000E6
:1021500000240140340000202DE9F043294885B0D7
:10216000816941F010018161816901F010010491E0
:10217000816941F020018161816901F020010491B0
:10218000816941F004018161816901F004010491D8
:10219000816941F00801816180691B4F00F00800EE
:1021A0004FF400540490002221463846FEF788FC84
:1021B000DFF858800022F8214046FEF781FCDFF866
:1021C0005090E61D002231464846FEF779FC009407
:1021D000012403256946384603950194FEF78EFBDA
:1021E000F820CDE90004694603954046FEF786FBDA
:1021F000CDE90064694648460395FEF77FFB05B0CC
:10220000BDE8F083001002400010014000080140CA
:10221000000C01400B4810B5094901600A494160B2
:1022200000214FF480428160C0E903124161816165
:10223000C1610162FEF750FC002800D0FEE710BD2E
:102240000054004064000020A086010010B51D4825
:1022500090B01B490024C0E900148460C46004618C
:102260004461FFF73AFD00B1FEE70E940EA9154850
:102270000F94FFF7CAFC00B1FEE7009401940294AA
:10228000039404940594002269460E480694FFF7CF
:10229000F9FC00B1FEE70794089409944FF400504C
:1022A0000A94CDE90B4007A906480D94FFF78CFC72
:1022B00000B1FEE70348FFF7D1FC10B010BD0000ED
:1022C000002C0140A0000020FEE770470907090E1E
:1022D000002806DA00F00F0000F1E02080F8141D5D
:1022E000704700F1E02080F80014704770472DE936
:1022F000FF4706467520DDF830908DF8080042F063
:10230000D00598460F460D70052302222946304617
:10231000FEF752FC40BB4FF47A74012302AA29460F
:1023200030460094FEF7D2FDF0B9012303AA2946F6
:1023300030460094FEF7E2FCB0B903E0032004B09D
:10234000BDE8F0879DF80C006828F7D16B208DF868
:10235000040000208DF80500022301AA294630461A
:102360000094FEF7B3FD08B10120E8E707223946E3
:10237000304600F0ADF842463946304600F062F88B
:102380004A463946304600F0B7F80020D7E72DE935
:10239000FF410C4643218DF80C10277806464FF478
:1023A0007A75012303AA394630460095FEF78EFD63
:1023B0000028F6D1062301AA394630460095FEF7DB
:1023C0009DFC0028F6D1BDF8040040BA6082BDF83B
:1023D000060040BAA082BDF8080040BAE08204B00E
:1023E0000020BDE8F0810000FEB50D4641218DF8CA
:1023F00008102F7806464FF47A74012302AA394652
:1024000030460094FEF762FD0028F6D1022301AAAF
:10241000394630460094FEF771FC0028F6D1BDF82D
:10242000040040BA00B2FDF713FF0449FDF7D2FEE5
:102430000349FDF777FEA8610020FEBD0000AA4316
:10244000B81E12422DE9FE43074691F800801C2079
:1024500016460D468DF808004FF47A74012302AA3F
:10246000414638460094FEF731FD0028F6D101239D
:1024700001AA414638460094FEF740FC0028F6D1F8
:102480009DF8040000F0E70040EAC6008DF8040063
:10249000012301AA414638460094FEF717FD0028A3
:1024A000F6D136B1012E07D0022E0BD0032E06D165
:1024B0000BE04FF0625001E04FF06450A860002044
:1024C000BDE8FE834FF06650F8E74FF06850F5E73F
:1024D0007CB504460D7819208DF804008DF8052090
:1024E0004FF47A76022301AA294620460096FEF789
:1024F000EDFC0028F6D17CBD2DE9FE43074691F89E
:1025000000801B2016460D468DF808004FF47A74A3
:10251000012302AA414638460094FEF7D7FC002862
:10252000F6D1012301AA414638460094FEF7E6FBA6
:102530000028F6D19DF8040000F0E70040EAC6004C
:102540008DF80400012301AA414638460094FEF7A5
:10255000BDFC0028F6D136B1012E06D0022E09D0DE
:10256000032E04D108E0054800E00548686000201B
:10257000BDE8FE830348F9E70348F7E72D23FA3B5C
:102580002D237A3C90C1F93C90C1793D704710B53C
:10259000FEF754FDBDE81040FFF712BB30B593B015
:1025A00001210804CDE900100025029502240491C0
:1025B000CDE907404FF4E01009906846FFF720F896
:1025C00000B1FEE70AA90F2081E831004FF48060D6
:1025D000CDE90D0502210AA8FEF7D4FE00B1FEE701
:1025E0004FF4004011900F940FA8FEF735FE00B194
:1025F000FEE7FEF78BFF4FF47A71B0FBF1F0FFF7C7
:10260000CBFA0420FFF7BBFA00221146501EFEF75A
:1026100079FD13B030BD00000D48016841F00101A3
:10262000016041680B4A1140416001680A4A11404B
:102630000160016821F480210160416821F4FE01FC
:1026400041604FF41F0181600449C0030860704776
:10265000001002400000FFF8FFFFF6FE08ED00E06A
:10266000F0B50268144B154C154D4FF08047984259
:1026700005D0B84203D0A04201D0A84203D122F035
:1026800070064A683243984205D0B84203D0A0424F
:1026900001D0A84203D122F44074CA6822430260E8
:1026A0008A68C2620A688262984201D1096901633C
:1026B00001214161F0BD0000002C014000040040F8
:1026C0000008004030B5026A22F001020262026A8C
:1026D0004368846924F073050C682C4322F00205DA
:1026E0008A682A430A4DA8420BD122F00805CA681D
:1026F00023F440732A434D6922F004021D438B6981
:102700002B434360846149684163026230BD00002D
:10271000002C014030B5026A22F010020262026A07
:10272000436884690D6824F4E64444EA05248D680E
:1027300022F0200242EA05120B4DA8420ED1CD68CC
:1027400022F0800242EA05124D6923F4406343EA15
:1027500085038D6922F0400243EA8503436084616A
:1027600049688163026230BD002C014030B5026AC5
:1027700022F480720262036A4268C46923F400731F
:1027800024F073050C682C438D6843EA05230C4D37
:10279000A8420ED1CD6823F4006343EA05234D69B6
:1027A00022F4405242EA05128D6923F4806342EA22
:1027B00005124260C4614968C163036230BD000014
:1027C000002C014030B5026A22F480520262046A91
:1027D0004268C3690D6823F4E64343EA05238D6824
:1027E00024F4005444EA0534064DA84204D14D694E
:1027F00022F4804242EA85124260C3614968016462
:10280000046230BD002C014010B5012000F006F834
:10281000BDE810400320FEF765B8000010B504467F
:10282000002280210548FEF74BF9200900F008F846
:1028300004F00F00BDE8104000F002B800080140AD
:1028400070B5164D044600F0080240212846FEF7F8
:1028500037F904F0040220212846FEF731F904F08C
:10286000020210212846FEF72BF904F0010208218C
:102870002846FEF725F90A4C012211462046FEF7AC
:102880001FF90120FEF72EF8002201212046FEF755
:1028900017F9BDE870400120FEF724B80008014098
:1028A000000C014008B509A212680092084AD378CA
:1028B0008B4200D80021507191711DF8011008441D
:1028C000C0B240F08000FFF7A9FF08BD00401454DB
:1028D0002400002010B50446012280210548FEF79F
:1028E000EFF82009FFF7ACFF04F00F00BDE810403F
:1028F000FFF7A6BF000801400449087820F0040053
:10290000087040F00800FFF789BF00002400002095
:102910000449087840F00400087040F00800FFF710
:102920007DBF00002400002070B506460D462D2016
:10293000FDF7D8FF1B4C0020012DE570267160715A
:10294000A071607001D9082060700320FFF778FF44
:102950002D20FDF7C7FF0320FFF772FF2D20FDF7A5
:10296000C1FF0320FFF76CFF2D20FDF7BBFF022006
:10297000FFF766FF0120FDF7B5FF607840F020000B
:10298000FFF74CFF04202070FFF7C2FFFFF73CFF6A
:102990000220A0700620FFF741FFBDE870402D2007
:1029A000FDF7A0BF2400002070B51546FFF77AFFA1
:1029B000134C16E060792179884207D300206071BA
:1029C000A179491CC9B2A171FFF76CFF28780A28C8
:1029D0000BD00D280FD0FFF77DFF6079401C607190
:1029E0006D1C28780028E5D170BDA079401CC1B2CB
:1029F000A171607901E0A1790020FFF753FFEFE7B3
:102A0000240000202DE9F041044600680169E268D5
:102A100021F44051114301612169A06808436169B3
:102A200008432168CA6841F20C639A430243CA60B2
:102A300020684169A26921F44071114341614C4908
:102A400020686425322688423CD1FEF77DFD00EBEC
:102A5000C00101EB001061688900B0FBF1F7FEF7DF
:102A600073FD00EBC00101EB00106168B046890006
:102A7000B0FBF1F0B0FBF5F06FF01801484307EB45
:102A8000800106EB0110B0FBF5F000F0F006FEF758
:102A90005BFD00EBC00101EB001061688900B0FB39
:102AA000F1F0B0FBF5F006EB0016FEF74DFD00EB84
:102AB000C00101EB001061688900B0FBF1F7FEF77F
:102AC00043FD3BE0FEF728FD00EBC00101EB0010E9
:102AD00061688900B0FBF1F7FEF71EFD00EBC00155
:102AE00001EB00106168B0468900B0FBF1F0B0FB6B
:102AF000F5F06FF01801484307EB800106EB011079
:102B0000B0FBF5F000F0F006FEF706FD00EBC001AB
:102B100001EB001061688900B0FBF1F0B0FBF5F04B
:102B200006EB0016FEF7F8FC00EBC00101EB00100D
:102B300061688900B0FBF1F7FEF7EEFC00EBC00125
:102B400001EB001061688900B0FBF1F0B0FBF5F01B
:102B50006FF01801484307EB800108EB0110B0FB50
:102B6000F5F0216800F00F0030448860BDE8F08186
:102B700000380140FEE700000FB4084B10B504A96F
:102B800002AA039800F01CF8044602A9002000F0F5
:102B9000B8F9204610BC5DF814FB0000032F0008B4
:102BA00002E008C8121F08C1002AFAD17047704716
:102BB000002001E001C1121F002AFBD17047000074
:102BC0002DE9FF4F8BB088460546002606E02528F4
:102BD0000BD0DDE90D1290476D1C761C287800287B
:102BE000F5D10FB03046BDE8F08F0024A146A246D3
:102BF0000122AE4900E0044315F8013F203B02FAF0
:102C000003F00842F7D128782A2810D06FF02F025D
:102C10002878A0F13001092915D809EB890102EBC8
:102C2000410144F0020400EB01096D1CF0E758F883
:102C3000041B5FEA010903D544F40054C9F10009FB
:102C400044F002046D1C28782E2817D115F8010FC6
:102C500044F004042A280ED06FF02F022878A0F147
:102C6000300109290AD80AEB8A0102EB410100EB85
:102C7000010A6D1CF2E758F804AB6D1C28786C282B
:102C80000FD006DC4C2817D068280DD06A2814D144
:102C900004E0742810D07A280FD10DE044F4001419
:102CA0000AE044F4801401E044F44014697881425D
:102CB00002D104F580146D1C6D1C2878692865D03C
:102CC00006DC00288DD0632827D0642806D15DE07B
:102CD0006E2808D073282AD0752877D0DDE90D1228
:102CE0009047761CE0E0C4F30250022809D0032884
:102CF0000DD0D8F8001004280DD00E6008F104089B
:102D0000D2E0D8F80010F217C1E90062F6E7D8F86F
:102D100000100E80F2E70E70F0E718F8041B8DF833
:102D2000001000208DF80100EB46012003E058F868
:102D300004BB4FF0FF3061074FF0000701D40AE0F9
:102D40007F1C57450DDA8742FADB1BF80710002974
:102D5000F6D106E07F1C8742FCDB1BF80710002938
:102D6000F8D1DDE90D23A9EB07008146214600F0EB
:102D7000B1F83044C61904E0DDE90D121BF8010B6F
:102D800090477F1EF8D22146484688E058F8040B49
:102D9000C4F302514FF00A0B032900D100B20429F9
:102DA00000D140B2002802DA40422D2102E0210584
:102DB00005D52B218DF82410012104E006E0E10760
:102DC00010D02021F6E708AF089113E058F8040B63
:102DD000C4F302514FF00A0B032900D180B2042939
:102DE00000D1C0B20021EEE75946FDF73AFA303182
:102DF00007F8011D0028F7D1ADEB070000F1200B0B
:102E0000600702D524F4803401E04FF0010ADA456E
:102E100002DDAAEB0B0000E00020824600EB0B0174
:102E200008980144A9EB01000A90E00306D4DDE90B
:102E30000D2321460A9800F04DF806444FF0000992
:102E400008E009A911F80900DDE90D12904709F120
:102E50000109761C08998945F3DBE0030CD5DDE90F
:102E60000D2321460A9800F035F8064404E0DDE918
:102E70000D1230209047761CBAF10001AAF1010A28
:102E8000F5DC05E0DDE90D1217F8010B9047761C23
:102E9000BBF10001ABF1010BF4DC0A982146DDE93E
:102EA0000D2300F005F806446D1C97E60928010083
:102EB0002DE9F041044600251E461746880404D437
:102EC00005E039462020B0476D1C641EF9D5284620
:102ED000BDE8F0812DE9F041044600251E469046EC
:102EE000C80301D5302700E02027880404D505E079
:102EF00041463846B0476D1C641EF9D52846BDE8EA
:102F0000F0810A68531C0B60107070470022022188
:102F10000148FDF7D5BD0000000C0140012202214F
:102F20000148FDF7CDBD0000000C0140F8B50025BB
:102F300043492B462A46A1F1B8000095FFF7D7F97F
:102F4000404CE070FFF760FC00213FA20846FFF70D
:102F50002BFD6581A581E5810120394D3E4F46035A
:102F6000A0613749A1F1B800FFF711FA688A6189B9
:102F700008446081A88AA1890844A081E88AE1897F
:102F80000844E08131463846FDF796FDC820FDF73C
:102F9000A9FCA069401CA0616428E2DBB4F90A1016
:102FA000642091FBF0F16181B4F90C1091FBF0F118
:102FB000A181B4F90E1091FBF0F0E081FFF724FC41
:102FC00026A200210120FFF7EFFC25A20021072007
:102FD000FFF7EAFC23A200210D20FFF7E5FC1848CB
:102FE000B4F90A2020A11C30FFF7C6FD144AA070D6
:102FF0001C3201210020FFF7D7FC1148B4F90C2046
:1030000019A11C30FFF7B8FD0D4AA0701C32012138
:103010000620FFF7C9FC0A48B4F90E2012A11C30A3
:10302000FFF7AAFD064AA0701C3201210C20FFF711
:10303000BBFCBDE8F84040F6B830FDF753BC0000DB
:103040001C010020000000202063616C6962726135
:1030500074696E672E2E2E0000100140580000008B
:10306000590000005A0000002569000010B51A48F8
:10307000FDF7BEFB32211848FDF722FB0028164859
:1030800003D0BDE81040FDF713BCFDF75DFA13490E
:103090004FF495720861A0F66111914201D80120A8
:1030A00010BDA0F241614FF4C773994201D80220CC
:1030B00010BDA0F29111994201D8042010BDA0F2D8
:1030C000E931914201D8052010BDB0F5967F01D2BB
:1030D000032010BD002010BD34000020000000209F
:1030E000054B4FF40051012803D000221846FDF78C
:1030F000E7BC0122FAE70000000C0140674C6420A5
:10310000E06140422062FDF7A1FFFFF747FAFFF7B9
:1031100023F864486249002501604FF4E131C0E9B9
:1031200001150C21C560C0E904518561C561FEF738
:1031300003FE00B1FEE7FFF76DF8FEF7EBFFFFF7C8
:1031400085F8594E002202213046FDF7B9FC0122D4
:10315000570339463046FDF7B3FC02211020FFF734
:10316000E3FBFFF751FB4F48A838FDF741FB4FF455
:103170007A784046FDF7B6FBFFF746FB4BA20021ED
:103180000120FFF711FC4AA200210720FFF70CFCE9
:1031900048A200210D20FFF707FCFFF7C7FEFFF74D
:1031A000ABFB0020FFF79CFFDFF80C9101263946AE
:1031B0004846FDF781FC2078F0B9002000F088F83F
:1031C000B4F90410E06981420EDC226A91420BDB03
:1031D000B4F90610814207DC914205DBB4F908100E
:1031E000814201DC914207DAFFF798FE2670FFF773
:1031F0008FFB0120FFF774FFFFF738FF062849D245
:10320000DFE800F0480E3903262C2078012841D150
:10321000FFF77CFE4FF4FA70FDF764FB257034E095
:10322000607838BBFFF77AFE6420FDF75BFBFFF7A1
:103230006DFE26706670FFF76BFB0120FFF750FFF5
:10324000FFF7E2FA00211DA20846FFF7ADFB0FE0F1
:10325000607801281ED1E069401C06E060780128F2
:1032600018D1E0691E2815DD401EE0614042206251
:1032700000F0A4F80EE0607801280BD100F028F8E7
:103280004046FDF72FFB25706570FFF735FB0020EA
:10329000FFF726FF3220FDF725FB88E7000000201E
:1032A00000380140DC000020000C01405800000004
:1032B000590000005A000000001001405669627277
:1032C0006174696F6E20466163746F720000000064
:1032D00070B52F490646A1F1B800FFF785F82C4DCF
:1032E0002C4C2946A8696061A1F1B800FFF74FF89E
:1032F000688A6189401AA080A88AA189401AE08062
:10330000E88AE189401A2081012E10D1FFF77CFA6A
:1033100021A200210120FFF747FB20A20021072066
:10332000FFF742FB1EA200210D20FFF73DFB1DA26F
:1033300001210020FFF738FB1548B4F904201EA135
:103340001C30FFF719FC124AA0701C32012100202A
:10335000FFF72AFB0E48B4F9062017A11C30FFF72F
:103360000BFC0B4AA0701C3201210620FFF71CFB4E
:103370000748B4F9082010A11C30FFF7FDFBA0702E
:10338000034ABDE870401C3201210D20FFF70CBB41
:103390001C0100200000002058000000590000001F
:1033A0005A00000020202020202020202020202043
:1033B00020202020000000002569000010B50648EC
:1033C00006A1C2690848FFF7D7FB0121BDE81040FC
:1033D000054A0620FFF7E8BA00000020252020203B
:1033E000206920202020000038010020000000007B
:1033F00000000000010203040607080900000000A5
:1034000001020304243400080000002034000000FE
:10341000A02B000858340008340000203C050000B0
:10342000B02B0008000000000000000000000000B9
:10343000000000000000000000000000000000008C
:10344000000000000000000000000000000000007C
:083450000000000000A24A0484
:04000005080000ED02
:00000001FF
